:100000000C94DD000C9405010C9405010C94050181
:100010000C9405010C9405010C9405010C94050148
:100020000C9405010C9405010C9402070C947407C0
:100030000C9405010C9405010C9405010C94050128
:100040000C9405010C945A050C9405010C940501BF
:100050000C9405010C9405010C9405010C941005F9
:100060000C9405010C94DE040C94B8040C94050166
:100070000C9405010C9405010C9405010C940501E8
:100080000C9405010C9405010C9405010C940501D8
:100090000C9405010C9405010C9405010C940501C8
:1000A0000C9405010C9405010C94050177027A0269
:1000B00069026D0271029B029B029B027E02820218
:1000C00086028C0290029B02960200000002000948
:1000D0000F0000030401000C0000000000000000FD
:1000E00000000000000000000000000000250028C3
:1000F000002B002E00310000000000240027002A01
:10010000002D00300004040404040304050202026C
:1001100002040302020202060606060606040402A0
:1001200002020404040802011040804010204080B4
:10013000408008020401804020100201108010203D
:10014000404020080B0002020201000904000001E7
:10015000020200000524001001052401010104240D
:10016000020605240600010705810310004009046A
:100170000100020A00000007050202400000070516
:1001800083024000000403090412010002EF02018F
:100190004041233680000101020301417264756908
:1001A0006E6F204C4C430041726475696E6F204C39
:1001B000656F6E6172646F00960B11241FBECFEFE6
:1001C000DAE0DEBFCDBF11E0A0E0B1E0E8E6F9E1A2
:1001D00002C005900D92AE34B107D9F722E0AEE42B
:1001E000B1E001C01D92A33DB207E1F710E0CDEDF3
:1001F000D0E004C02197FE010E94A70CCC3DD1079E
:10020000C9F70E94A4090C94B20C0C940000CF9280
:10021000DF92EF92FF920F931F93CF93DF936C01C6
:100220007A018B01C0E0D0E0CE15DF0589F0D8015E
:100230006D918D01D601ED91FC910190F081E02D41
:10024000C6010995892B11F47E0102C02196ECCFDD
:10025000C701DF91CF911F910F91FF90EF90DF9039
:10026000CF900895FC01538D448D252F30E0842FCD
:1002700090E0821B930B541710F0CF9608950197CE
:100280000895FC01918D828D981761F0828DDF01B8
:10029000A80FB11D5D968C91928D9F5F9F73928F79
:1002A00090E008958FEF9FEF0895FC01918D828D6E
:1002B000981731F0828DE80FF11D858D90E008953B
:1002C0008FEF9FEF0895FC01918D228D892F90E093
:1002D000805C9F4F821B91098F739927089582E656
:1002E00091E00E94630121E0892B09F420E0822F34
:1002F0000895FC01848DDF01A80FB11DA35ABF4FE3
:100300002C91848D90E001968F739927848FA68914
:10031000B7892C93A089B1898C9180648C93938D3B
:10032000848D981306C00288F389E02D80818F7D2B
:1003300080830895EF92FF920F931F93CF93DF93E3
:10034000EC0181E0888F9B8D8C8D981305C0E88926
:10035000F989808185FD24C0F62E0B8D10E00F5F9A
:100360001F4F0F731127E02E8C8DE8120CC00FB6B3
:1003700007FCFACFE889F989808185FFF5CFCE01A6
:100380000E947901F1CF8B8DFE01E80FF11DE35A38
:10039000FF4FF0820B8FEA89FB898081806207C062
:1003A000EE89FF896083E889F98980818064808390
:1003B00081E090E0DF91CF911F910F91FF90EF903E
:1003C0000895CF93DF93EC01888D8823C9F0EA89E3
:1003D000FB89808185FD05C0A889B9898C9186FD3E
:1003E0000FC00FB607FCF5CF808185FFF2CFA8893B
:1003F000B9898C9185FFEDCFCE010E947901E7CFBD
:10040000DF91CF91089580E090E0892B29F00E9440
:100410006F0181110C9400000895CF93DF931F9218
:10042000CDB7DEB76983DC01ED91FC910280F381E9
:10043000E02D41E050E0BE016F5F7F4F09950F90C6
:10044000DF91CF91089583E08093E9008091F200DD
:10045000882319F08AE38093E8000895FC018485DD
:10046000958597FD0BC09FB7F89482E08093E900D3
:100470008091F2009FBF90E0019608959FB7F89495
:1004800082E08093E9008091F2009FBF90E00895A0
:10049000089580E090E00895362F90E0FC01E65347
:1004A000FF4F4491FC01EC5DFE4F2491FC01EB5F9A
:1004B000FE4F8491882309F451C04423E1F150E0B8
:1004C000FA013197EF30F105B0F5EA5AFF4F0C947D
:1004D000A70C909180009F7707C0909180009F7D2E
:1004E00003C090918000977F9093800024C094B5C2
:1004F0009F7702C094B59F7D94BD1DC090919000E0
:100500009F7707C0909190009F7D03C090919000CD
:10051000977F909390000FC09091C0009F7703C089
:100520009091C0009F7D9093C00005C09091C20043
:10053000977F9093C200E82FF0E0EE0FFF1FE75186
:10054000FF4FA591B4918FB7F894EC91311103C08E
:1005500020952E2301C02E2B2C938FBF08953FB7DB
:10056000F8948091540190915501A0915601B09159
:10057000570126B5A89B05C02F3F19F00196A11D74
:10058000B11D3FBFBA2FA92F982F8827820F911D29
:10059000A11DB11DBC01CD0142E0660F771F881F70
:1005A000991F4A95D1F708958F929F92AF92BF926B
:1005B000CF92DF92EF92FF926B017C010E94AF021B
:1005C0004B015C01C114D104E104F104F1F00E947B
:1005D000AF02DC01CB0188199909AA09BB09883E41
:1005E0009340A105B10570F321E0C21AD108E108DA
:1005F000F10888EE880E83E0981EA11CB11CC1147E
:10060000D104E104F10419F7DDCFFF90EF90DF9002
:10061000CF90BF90AF909F908F9008952FB7F89490
:10062000609150017091510180915201909153015C
:100630002FBF0895CF92DF92EF92FF92CF93DF9377
:10064000EC01603282E078070CF03DC077FD06C017
:10065000653B71052CF064EB70E002C060E070E077
:10066000898128E830E06901C81AD10887FDD39450
:10067000CC0CDD1CCC0CDD1C0D2C000CEE08FF0896
:100680008A8128E532E0281B310987FD3395220F46
:10069000331F220F331FC901330FAA0BBB0B9C0161
:1006A000AD012C193D094E095F09DB010E94840C44
:1006B00024EB30E040E050E00E945A0CC20ED31E02
:1006C000E41EF51EB60188818C3080F5998148E8DA
:1006D00050E0491B510997FD5395440F551F440F96
:1006E000551F6417750784F09A8128E532E0291BAD
:1006F000310997FD3395220F331F220F331FAB01B2
:10070000261737070CF4A90142505109440F551F11
:100710002FB7F89490E0FC01EE0FFF1F8E0F9F1F84
:10072000FC01E956FD4F528341832FBFDF91CF91EA
:10073000FF90EF90DF90CF9008956115710579F0EB
:10074000FB0101900020E9F73197AF01461B570BE1
:10075000DC01ED91FC910280F381E02D099480E0B1
:1007600090E008958F929F92AF92BF92CF92DF92C6
:10077000EF92FF920F931F93CF93DF935C016B0176
:100780007A0180910B01882309F45BC0809161019B
:10079000882309F456C080915E0180FF05C08091D6
:1007A000E00082608093E000E70110E00AEF83E060
:1007B000882E9AE3992E2097D9F10E94F106811193
:1007C0000AC0015009F43DC061E070E080E090E0B3
:1007D0000E94D402F0CF282F30E0C217D3070CF4C8
:1007E0008C2F4FB7F8948092E9009091E80095FF24
:1007F0001DC0282F30E0C21BD30BF601982F91505B
:1008000020F081918093F100FACFC20ED31E112304
:1008100019F09092E80009C08091E80085FD06C0BB
:100820009092E80011E0209709F010E04FBFC3CF8D
:100830001111C3CF5D9884E680935F011E141F04DD
:1008400044F081E090E0F5019383828380E090E0C2
:1008500001C0C701DF91CF911F910F91FF90EF90E1
:10086000DF90CF90BF90AF909F908F9008950E949F
:10087000F10690E00895CF93DF931F92CDB7DEB7D6
:10088000FC018485958597FD05C02FEF3FEF3587E7
:1008900024870BC0CE0101960E94C706019719F468
:1008A000898190E002C08FEF9FEF0F90DF91CF9191
:1008B00008950F931F93CF93DF931F92CDB7DEB7A9
:1008C0008C01FC018485958597FF0EC0CE010196B1
:1008D0000E94C706019719F4298130E002C02FEF6A
:1008E0003FEFF80135872487F801848595850F90BF
:1008F000DF91CF911F910F91089540915A0150912E
:100900005B01209158013091590142175307B4F40B
:100910009091E8009570E1F39091E80092FD19C084
:100920008093F10080915A0190915B0101968F7341
:100930009927892B19F48EEF8093E80080915A0152
:1009400090915B01019690935B0180935A0181E045
:10095000089580E00895615030F02091F100FC018D
:1009600020830196F8CF289884E68093600108954B
:100970001F920F920FB60F9211242F933F934F9314
:100980005F936F937F938F939F93AF93BF93EF93F7
:10099000FF9382E691E00E947901FF91EF91BF9170
:1009A000AF919F918F917F916F915F914F913F9107
:1009B0002F910F900FBE0F901F9018951F920F92BE
:1009C0000FB60F9211242F938F939F93EF93FF9362
:1009D000E0917201F09173018081E0917801F091D2
:1009E000790182FD12C0908180917B018F5F8F73AE
:1009F00020917C01821751F0E0917B01F0E0EE59EB
:100A0000FE4F958F80937B0101C08081FF91EF9114
:100A10009F918F912F910F900FBE0F901F9018955F
:100A20001F920F920FB60F9211242F933F938F9323
:100A30009F93AF93BF938091500190915101A091EA
:100A40005201B091530130914F0123E0230F2D3714
:100A500020F40196A11DB11D05C026E8230F0296C2
:100A6000A11DB11D20934F0180935001909351011E
:100A7000A0935201B093530180915401909155017C
:100A8000A0915601B09157010196A11DB11D80930F
:100A9000540190935501A0935601B0935701BF9113
:100AA000AF919F918F913F912F910F900FBE0F901B
:100AB0001F9018951F920F920FB60F9211242F932B
:100AC0003F934F935F936F937F938F939F93AF93D6
:100AD000BF93EF93FF9380914E0187FF05C0109263
:100AE0008500109284001BC020914E01022E000C44
:100AF000330B8091BB0290E02817390784F4809172
:100B00004E01082E000C990BFC01EE0FFF1F8E0FFB
:100B10009F1FFC01E956FD4F808186FD15C0809125
:100B20004E018F5F80934E0120914E01022E000CEA
:100B3000330B8091BB0290E028173907C4F48091F1
:100B40004E018C3064F113C080914E01082E000CD0
:100B5000990BFC01EE0FFF1F8E0F9F1FFC01E95642
:100B6000FD4F808160E08F730E944C02D8CF80914E
:100B7000840090918500049680349C4918F480E4A8
:100B80009CE905C080918400909185000496909323
:100B90008900809388008FEF80934E013BC02091A5
:100BA00084003091850080914E01082E000C990B35
:100BB000FC01EE0FFF1F8E0F9F1FFC01E956FD4F3A
:100BC00081819281820F931F909389008093880086
:100BD00080914E01082E000C990BFC01EE0FFF1FB7
:100BE0008E0F9F1FFC01E956FD4F808186FF12C0CA
:100BF00080914E01082E000C990BFC01EE0FFF1F97
:100C00008E0F9F1FFC01E956FD4F808161E08F73BD
:100C10000E944C02FF91EF91BF91AF919F918F91F4
:100C20007F916F915F914F913F912F910F900FBEE8
:100C30000F901F9018958091CB0281110DC082E01A
:100C40008093C70284E08093C8021092CA02109277
:100C5000C90281E08093CB0287EC92E008950E9464
:100C6000AD0CCF92DF92EF92FF920F931F93CF9331
:100C7000DF931F92CDB7DEB7182F062FE42E862FF5
:100C8000880F8E5F99830E947D0483E00E947D041B
:100C9000F12EC12E9981D92E8C2D8F19801798F4A1
:100CA000F601E7FE02C0849101C080810E947D04AC
:100CB000182F80E00E947D048123FFEFCF1ADF0A06
:100CC0008111EACF01C081E00F90DF91CF911F9198
:100CD0000F91FF90EF90DF90CF900895DF92EF9209
:100CE000FF920F931F93CF93DF93D82E8A017B013E
:100CF000E40EF51EEB01CE15DF0571F0D7FE03C043
:100D0000FE01849101C088810E947D042196811199
:100D1000F2CF8FEF9FEF01C0C801DF91CF911F91FC
:100D20000F91FF90EF90DF9008950F931F93CF9353
:100D3000DF931F92CDB7DEB782E0898342E450E0B3
:100D400063E471E080E80E946E060E941B06DC01ED
:100D500012960D911C9113970115110569F0D80198
:100D6000ED91FC910280F381E02DBE016F5F7F4F1A
:100D7000C801099597FF07C089810F90DF91CF9136
:100D80001F910F910895F80100851185E5CFFC01B1
:100D900080916101811103C08FEF9FEF08959FB78C
:100DA000F89482E08093E9002091F20030E012167E
:100DB000130614F421E030E02115310559F028988C
:100DC00084E6809360018091F10080838091F2003D
:100DD000882319F09FBFC90108958BE68093E8002E
:100DE000F9CF2FB7F89483E08093E9009091E80061
:100DF000892F807295FF04C09091F20080E4891BD6
:100E00002FBF08951F920F920FB60F9211248F9348
:100E10009F938091E1009091E100937F9093E10096
:100E200083FF0FC01092E90091E09093EB001092C5
:100E3000EC0092E39093ED001092610198E09093A2
:100E4000F00082FF20C093E09093E9009091F200BF
:100E5000992319F09AE39093E80090915F01992308
:100E600039F090915F01915090935F01992389F13E
:100E700090916001992339F0909160019150909385
:100E80006001992341F184FF10C08091E2008E7EC1
:100E900081608093E2008091E1008F7E8093E10089
:100EA00080915E018E7E806111C080FF16C08091AE
:100EB000E2008E7E80618093E2008091E1008E7E70
:100EC0008093E10080915E018E7E816080935E015F
:100ED00004C05D9ACDCF289AD6CF9F918F910F9065
:100EE0000FBE0F901F9018951F920F920FB60F9282
:100EF0001124CF92DF92EF92FF920F931F932F93C3
:100F00003F934F935F936F937F938F939F93AF9391
:100F1000BF93EF93FF93CF93DF93CDB7DEB76C977B
:100F2000DEBFCDBF1092E9008091E80083FFEDC1E4
:100F300068E0CE0145960E94AB0482EF8093E80002
:100F40008D8987FF05C09091E80090FFFCCF03C01A
:100F50009EEF9093E800982F907609F0C6C09E8986
:100F60002F89188D91110CC0803829F480915D0172
:100F70008093F10002C01092F1001092F10048C17C
:100F8000422F50E0512B913051F4811141C1413039
:100F9000510509F03DC180915D018D7F0BC09330FB
:100FA00061F4811135C14130510509F031C18091A1
:100FB0005D01826080935D012BC1953041F4809189
:100FC000E80080FFFCCF20682093E30021C1963029
:100FD00009F05FC0EB8CFC8C1092E90010925B0171
:100FE00010925A01123091F5109259011092580145
:100FF0000E94950699E0BE016F5F7F4FDB01E92FEC
:101000001D92EA95E9F799831A8391E09E8390EA0D
:1010100098879AEF998720915A0130915B01275F59
:101020003F4F3C832B838D831092E90010925B012C
:1010300010925A01F0925901E092580149E050E0B3
:1010400080E00E946E060E949506E2C0F09259016F
:10105000E09258010E941B06DC011296ED90FC9074
:101060001397E114F10409F4C0C0D701ED91FC918C
:101070000480F581E02DBE016B5E7F4FC7010995AD
:10108000009719F00CF0C4C0C7C0F701E084F184E8
:10109000E8CF973009F4C0C0983021F481E0809304
:1010A000F100B6C0993009F0B3C0837009F0B4C044
:1010B000EDE0F1E081E021E036E39081992361F0F9
:1010C0008093E9002093EB0091919093EC00309392
:1010D000ED008F5F873089F78EE78093EA001092EA
:1010E000EA008F898093610193C08B8D9C8D109253
:1010F000E90010925B0110925A019093590180937C
:101100005801898D811156C08E899D89913A59F473
:10111000813209F081C047E050E064E071E080E096
:101120000E946E0675C0913209F076C0833289F450
:10113000888D90E0982F88272F89822BA0E0B0E03F
:101140008093000190930101A0930201B0930301E9
:101150005FC0803269F48091E80082FFFCCF67E0D5
:1011600084E091E00E94AB048BEF8093E80006C01E
:10117000823209F04DC08F8980930B0180915C0110
:10118000882319F0EEEFFAE002C0E0E0F8E0809189
:10119000040190910501A0910601B0910701803BE7
:1011A0009440A105B10509F07BC080910B0180FF3F
:1011B00093C076C00E941B06DC0112960D911C9113
:1011C00013970115110541F1D801ED91FC910190A2
:1011D000F081E02DBE016B5E7F4FC8010995811142
:1011E00017C0F80100851185ECCF113009F44EC00D
:1011F000133091F48F89882309F445C0823081F43B
:1012000040E860E187EA91E00E943106882321F0FE
:101210008EEF8093E80079C081E28093EB0075C087
:10122000813029F440E86BE08BE991E0EDCF833029
:1012300099F70E941B06DC011296ED90FC90139723
:101240008E010F5F1F4F6801E114F10479F0D7019F
:10125000ED91FC910680F781E02DB801C701099559
:10126000080F111DF701E084F184EECFD8011C9224
:10127000F60101900020E9F73197BF016C197D0953
:1012800040E0C601C1CF65E871E002C069E871E0E5
:101290006115710509F2FB01449150E080E840CFEF
:1012A0000FB6F894A89580916000886180936000E3
:1012B000109260000FBEA895EE3F2AE0F20739F0C9
:1012C0008091FE0A9091FF0A91838083A1CF1092B2
:1012D000FF0A1092FE0A9CCFEE3F8AE0F80731F039
:1012E000808191819093FF0A8093FE0A87E797E7B8
:1012F000918380839BE088E10FB6F894A895809352
:1013000060000FBE9093600083CF6C960FB6F89488
:10131000DEBF0FBECDBFDF91CF91FF91EF91BF91A7
:10132000AF919F918F917F916F915F914F913F917D
:101330002F911F910F91FF90EF90DF90CF900F9022
:101340000FBE0F901F901895789484B5826084BD6D
:1013500084B5816084BD85B5826085BD85B58160B9
:1013600085BD80916E00816080936E001092810037
:1013700080918100826080938100809181008160F2
:1013800080938100809180008160809380008091B3
:1013900091008260809391008091910081608093A0
:1013A0009100809190008160809390008091C100B5
:1013B00084608093C1008091C10082608093C100ED
:1013C0008091C10081608093C1008091C3008160E1
:1013D0008093C3008091C00082608093C0008091A0
:1013E000C20081608093C20080917A008460809303
:1013F0007A0080917A00826080937A0080917A00EE
:10140000816080937A0080917A00806880937A006E
:101410001092610110925D0110925E018091D700DF
:1014200081608093D70080EA8093D80089B580617D
:1014300089BD89B5826089BD09B400FEFDCF61E038
:1014400070E080E090E00E94D4028091D8008F7C10
:1014500080618093D8008091E000807F8093E000DD
:101460008091E1008E7E8093E1008DE08093E20028
:10147000559A209AEEEFFFE7859194918B3F9C4D12
:1014800019F481E080935C0110929302109294020F
:1014900010929502109296021092510210925202EE
:1014A00010925302109254020E940E036B017C01B1
:1014B0004B015C0188EB880E8BE0981EA11CB11CCF
:1014C0000E940E036C157D058E059F0528F086167B
:1014D0009706A806B906A0F78FEF91E090939202C5
:1014E00080939102CBE1D0E0F0900B016AE070E0D4
:1014F00080E090E00E94D402F11009C0219739F0F9
:1015000064E670E080E090E00E94D402EDCFE091CC
:101510009102F09192028FEF9FEF958784870E944E
:101520000E03609351027093520280935302909382
:10153000540267E371E080919102909192020E94BF
:101540009D030E940E036B017C014B015C019AE03C
:10155000890E911CA11CB11C0E940E036C157D0507
:101560008E059F0528F086169706A806B906A0F7EF
:1015700081E0809365028FEF9FEF90930C02809340
:101580000B0269E471E08FEF91E00E949D0366E435
:1015900071E08FEF91E00E949D0380B38D7C80BB52
:1015A000CCEBD2E069918FEF91E00E940D0222E036
:1015B000C03CD207B9F70E940E036093C00270933B
:1015C000C1028093C2029093C302E0917201F09134
:1015D000730182E08083E0916E01F0916F011082CF
:1015E000E0917001F091710180E1808310927A01A5
:1015F000E0917601F09177018EE08083E0917401B3
:10160000F0917501808180618083E0917401F09197
:101610007501808188608083E0917401F09175018B
:10162000808180688083E0917401F09175018081F0
:101630008F7D80838091C4028C3008F068C0E6E31F
:10164000F1E02491E7E1F1E08491882399F090E0C2
:10165000880F991FFC01E950FF4FA591B491FC013F
:10166000E751FF4F859194918FB7F894EC91E22B5D
:10167000EC938FBFE091C402AE2FB0E0CD01880F94
:10168000991FA80FB91FA956BD4F8C91807C82610C
:101690008C931092C5021092C6028E2F6CE00E94AD
:1016A0009B0C9CE0899FB001112440E050E09A011E
:1016B000260F371FD901AA0FBB1F2A0F3B1FD901C5
:1016C000A956BD4F9C9196FD16C04F5F5F4F4C30A1
:1016D000510569F781110FC01092800082E080935C
:1016E00081001092850010928400B19A80916F0061
:1016F000826080936F008E2F90E0FC01EE0FFF1F41
:10170000E80FF91FE956FD4F80818064808360E017
:1017100070E084EC92E00E941A036CE370E084ECC9
:1017200092E00E941A030E940302F7CF1092650113
:101730001092640188EE93E0A0E0B0E0809366012F
:1017400090936701A0936801B093690127E131E0AC
:1017500030936301209362012DEC30E030936F01F0
:1017600020936E012CEC30E03093710120937001D6
:1017700028EC30E0309373012093720129EC30E0C3
:1017800030937501209374012AEC30E03093770197
:10179000209376012EEC30E030937901209378018C
:1017A00010927B0110927C0110927D0110927E01BB
:1017B000109202021092010280930302909304029D
:1017C000A0930502B093060289E291E09093000293
:1017D0008093FF018FEF9FEF90930C0280930B0299
:1017E000109255021092560210925702109258020F
:1017F0001092590210925A0210925B0210925C02EF
:1018000010925D0210925E0210925F0210926002CE
:1018100010926102109262021092630210926402AE
:1018200084E48093BC0282E28093BD028BEB8093C0
:10183000BE0281E08093BF028091BB028C30A0F495
:1018400091E0980F9093BB028093C40290E0FC015A
:10185000EE0FFF1F8E0F9F1FFC01E956FD4F88EB17
:101860009BE09283818308958FEF8093C402089553
:10187000A1E21A2EAA1BBB1BFD010DC0AA1FBB1F94
:10188000EE1FFF1FA217B307E407F50720F0A21B06
:10189000B30BE40BF50B661F771F881F991F1A9473
:1018A00069F760957095809590959B01AC01BD019D
:1018B000CF010895052E97FB1EF400940E94710C31
:1018C00057FD07D00E94380C07FC03D04EF40C944F
:1018D000710C50954095309521953F4F4F4F5F4F7C
:1018E000089590958095709561957F4F8F4F9F4F8C
:1018F00008950E948C0CA59F900DB49F900DA49FFD
:10190000800D911D11240895B7FF0C94790C0E944D
:10191000790C821B930B0895A29FB001B39FC00165
:10192000A39F700D811D1124911DB29F700D811D0B
:101930001124911D0895991B79E004C0991F9617F1
:1019400008F0961B881F7A95C9F780950895EE0FC9
:10195000FF1F0590F491E02D099481E090E0F89448
:081960000C94B20CF894FFCFC7
:10196800FFFFFFFF00E100000000000000C18081D0
:10197800000000000000009A0107013201E1016344
:101988000141015501000000000D02B20337042394
:10199800022E023B045904564D4450565F317C31A7
:0E19A8005F564D4450560D0A005445535400EE
:00000001FF
