:100000000C94EC000C9414010C9414010C94140145
:100010000C9414010C9414010C9414010C9414010C
:100020000C9414010C9414010C944E0A0C946F055A
:100030000C9414010C9414010C9414010C941401EC
:100040000C9414010C9466080C9414010C94140183
:100050000C9414010C9414010C9414010C941C08BD
:100060000C9414010C94C5070C949F070C94140174
:100070000C9414010C9414010C9414010C941401AC
:100080000C9414010C9414010C9414010C9414019C
:100090000C9414010C9414010C9414010C9414018C
:1000A0000C9414010C9414010C94140125032803DE
:1000B00017031B031F034903490349032C033003A0
:1000C00034033A033E034903440338043D04420425
:1000D0004C045604A004A004A00460046A04740440
:1000E0007E048B04A00493040000000200090F00AA
:1000F00000030401000C00000000000000000000EC
:1001000000000000000000080B00020202010009CC
:100110000400000102020000052400100105240172
:1001200001010424020605240600010705810310CD
:10013000004009040100020A000000070502024015
:1001400000000705830240000004030904120100B7
:1001500002EF020140412336800001010203014108
:10016000726475696E6F204C4C430041726475690E
:100170006E6F204C656F6E6172646F00000000004E
:10018000250028002B002E00310000000000240074
:1001900027002A002D003000040404040403040591
:1001A0000202020204030202020206060606060614
:1001B00004040202020404040802011040804010FA
:1001C000204080408008020401804020100201107D
:1001D000801020404020B70D11241FBECFEFDAE081
:1001E000DEBFCDBF11E0A0E0B1E0EAE7FDE102C073
:1001F00005900D92AA33B107D9F722E0AAE3B1E046
:1002000001C01D92AA3AB207E1F710E0CCEED0E0AF
:1002100004C02197FE010E94B00ECB3ED107C9F762
:100220000E94C00A0C94BB0E0C9400004091540133
:1002300050915501209152013091530142175307BB
:10024000B4F49091E8009570E1F39091E80092FD8C
:1002500019C08093F100809154019091550101964D
:100260008F739927892B19F48EEF8093E800809182
:10027000540190915501019690935501809354013A
:1002800081E0089580E00895CF92DF92EF92FF928F
:100290000F931F93CF93DF931F92CDB7DEB7182F25
:1002A000062FE42E862F880F8E5F99830E941601F9
:1002B00083E00E941601F12EC12E9981D92E8C2D3A
:1002C0008F19801798F4F601E7FE02C0849101C0EF
:1002D00080810E941601182F80E00E941601812360
:1002E000FFEFCF1ADF0A8111EACF01C081E00F9042
:1002F000DF91CF911F910F91FF90EF90DF90CF9002
:100300000895DF92EF92FF920F931F93CF93DF93A5
:10031000D82E8A017B01E40EF51EEB01CE15DF0518
:1003200071F0D7FE03C0FE01849101C088810E9454
:10033000160121968111F2CF8FEF9FEF01C0C80106
:10034000DF91CF911F910F91FF90EF90DF90089573
:10035000615030F02091F100FC0120830196F8CF2C
:10036000289884E680935A010895CF92DF92EF9205
:10037000FF920F931F93CF93DF936C017A018B0150
:10038000C0E0D0E0CE15DF0589F0D8016D918D0178
:10039000D601ED91FC910190F081E02DC601099507
:1003A000892B11F47E0102C02196ECCFC701DF91A9
:1003B000CF911F910F91FF90EF90DF90CF90089514
:1003C000FC01538D448D252F30E0842F90E0821B5B
:1003D000930B541710F0CF96089501970895FC01E0
:1003E000918D828D981761F0828DDF01A80FB11D6C
:1003F0005D968C91928D9F5F9F73928F90E0089590
:100400008FEF9FEF0895FC01918D828D981731F049
:10041000828DE80FF11D858D90E008958FEF9FEF9D
:100420000895FC01918D228D892F90E0805C9F4F73
:10043000821B91098F73992708958CE591E00E94A2
:10044000110221E0892B09F420E0822F0895FC019C
:10045000848DDF01A80FB11DA35ABF4F2C91848D4D
:1004600090E001968F739927848FA689B7892C9382
:10047000A089B1898C9180648C93938D848D98131D
:1004800006C00288F389E02D80818F7D80830895E6
:10049000EF92FF920F931F93CF93DF93EC0181E0D4
:1004A000888F9B8D8C8D981305C0E889F989808190
:1004B00085FD24C0F62E0B8D10E00F5F1F4F0F73CC
:1004C0001127E02E8C8DE8120CC00FB607FCFACF76
:1004D000E889F989808185FFF5CFCE010E94270246
:1004E000F1CF8B8DFE01E80FF11DE35AFF4FF08233
:1004F0000B8FEA89FB898081806207C0EE89FF89C2
:100500006083E889F98980818064808381E090E05C
:10051000DF91CF911F910F91FF90EF900895CF93AE
:10052000DF93EC01888D8823C9F0EA89FB898081FB
:1005300085FD05C0A889B9898C9186FD0FC00FB6CD
:1005400007FCF5CF808185FFF2CFA889B9898C910E
:1005500085FFEDCFCE010E942702E7CFDF91CF913B
:10056000089580E090E0892B29F00E941D028111FE
:100570000C9400000895CF93DF931F92CDB7DEB7A0
:100580006983DC01ED91FC910280F381E02D41E073
:1005900050E0BE016F5F7F4F09950F90DF91CF91C3
:1005A000089583E08093E9008091F200882319F098
:1005B0008AE38093E8000895FC018485958597FD82
:1005C0000BC09FB7F89482E08093E9008091F2001D
:1005D0009FBF90E0019608959FB7F89482E08093C2
:1005E000E9008091F2009FBF90E00895089580E0B7
:1005F00090E00895362F90E0FC01E851FF4F4491C0
:10060000FC01E954FE4F2491FC01E856FE4F849111
:10061000882309F451C04423E1F150E0FA013197F5
:10062000EF30F105B0F5EA5AFF4F0C94B00E9091FF
:1006300080009F7707C0909180009F7D03C09091BC
:100640008000977F9093800024C094B59F7702C06C
:1006500094B59F7D94BD1DC0909190009F7707C079
:10066000909190009F7D03C090919000977F909310
:1006700090000FC09091C0009F7703C09091C00080
:100680009F7D9093C00005C09091C200977F90938A
:10069000C200E82FF0E0EE0FFF1FE458FE4FA591D7
:1006A000B4918FB7F894EC91311103C020952E23AB
:1006B00001C02E2B2C938FBF0895CF92DF92EF9223
:1006C000FF92CF93DF93EC01603282E078070CF069
:1006D0003DC077FD06C0653B71052CF064EB70E012
:1006E00002C060E070E0898128E830E06901C81A42
:1006F000D10887FDD394CC0CDD1CCC0CDD1C0D2C5B
:10070000000CEE08FF088A8128E532E0281B310939
:1007100087FD3395220F331F220F331FC901330F7B
:10072000AA0BBB0B9C01AD012C193D094E095F09B9
:10073000DB010E946B0E24EB30E040E050E00E94B1
:10074000410EC20ED31EE41EF51EB60188818C3008
:1007500080F5998148E850E0491B510997FD539570
:10076000440F551F440F551F6417750784F09A8175
:1007700028E532E0291B310997FD3395220F331FFD
:10078000220F331FAB01261737070CF4A901425083
:100790005109440F551F2FB7F89490E0FC01EE0F5C
:1007A000FF1F8E0F9F1FFC01E75BFD4F52834183AC
:1007B0002FBFDF91CF91FF90EF90DF90CF90089502
:1007C0000F931F93CF93DF931F92CDB7DEB782E0D5
:1007D000898342E450E067E071E080E80E94810193
:1007E0000E943A0ADC0112960D911C911397011593
:1007F000110569F0D801ED91FC910280F381E02DA3
:10080000BE016F5F7F4FC801099597FF07C08981BF
:100810000F90DF91CF911F910F910895F8010085FE
:100820001185E5CF1F93CF93DF93182FEB010E9423
:100830003E09209711F460E004C0CF3FD10539F4A0
:1008400061E0812FDF91CF911F910C94FA02E12F8B
:10085000F0E0E851FF4FE4914E2F50E0FA0131975C
:10086000EF30F10508F06CC0EB59FF4F0C94B00E5F
:1008700084B5806884BDC7BD68C084B5806284BD0E
:10088000C8BD63C080918000806880938000D09351
:100890008900C093880059C0809180008062809355
:1008A0008000D0938B00C0938A004FC0809180005D
:1008B000886080938000D0938D00C0938C0045C0E9
:1008C00080919000806880939000D0939900C093AD
:1008D00098003BC080919000806280939000D093FC
:1008E0009B00C0939A0031C08091900088608093F3
:1008F0009000D0939D00C0939C0027C08091C000C1
:1009000080688093C0008091C0008F7B8093C0007E
:10091000C093CF001AC08091C00080628093C00055
:10092000C093D00012C08091C20088608093C20042
:100930008091C2008B7F8093C200C093D20005C01B
:10094000C038D1050CF07CCF76CFDF91CF911F91CD
:1009500008958F929F92AF92BF92CF92DF92EF92C3
:10096000FF920F931F93CF93DF936C015B017A018A
:1009700080910B01882309F456C080915B01882384
:1009800009F451C08091580180FF05C08091E000BA
:1009900082608093E000E70110E00AEF83E0882E98
:1009A0009AE3992E2097B1F10E94290A811105C07E
:1009B0000150C9F10E94E509F5CF282F30E0C21798
:1009C000D3070CF48C2F4FB7F8948092E9009091E4
:1009D000E80095FF1DC0282F30E0C21BD30BF501A6
:1009E000982F915020F081918093F100FACFA20EC0
:1009F000B31E112319F09092E80009C08091E8001D
:100A000085FD06C09092E80011E0209709F010E003
:100A10004FBFC8CF1111C8CF5D9884E680935901AC
:100A20001E141F0444F081E090E0F601938382835A
:100A300080E090E001C0C701DF91CF911F910F913D
:100A4000FF90EF90DF90CF90BF90AF909F908F90EE
:100A500008950E94290A90E00895CF93DF931F9292
:100A6000CDB7DEB7FC018485958597FD05C02FEFD6
:100A70003FEF358724870BC0CE0101960E94FF0906
:100A8000019719F4898190E002C08FEF9FEF0F90DA
:100A9000DF91CF9108950F931F93CF93DF931F9210
:100AA000CDB7DEB78C01FC018485958597FF0EC01C
:100AB000CE0101960E94FF09019719F4298130E0C7
:100AC00002C02FEF3FEFF80135872487F8018485B6
:100AD00095850F90DF91CF911F910F9108951F92EF
:100AE0000F920FB60F921124CF92DF92EF92FF92E6
:100AF0000F931F932F933F934F935F936F937F9326
:100B00008F939F93AF93BF93EF93FF93CF93DF9315
:100B1000CDB7DEB76C97DEBFCDBF1092E9008091F4
:100B2000E80083FFEDC168E0CE0145960E94A80170
:100B300082EF8093E8008D8987FF05C09091E800DF
:100B400090FFFCCF03C09EEF9093E800982F907623
:100B500009F0C6C09E892F89188D91110CC080386C
:100B600029F4809157018093F10002C01092F100A6
:100B70001092F10048C1422F50E0512B913051F4B6
:100B8000811141C14130510509F03DC180915701AA
:100B90008D7F0BC0933061F4811135C14130510517
:100BA00009F031C1809157018260809357012BC1B8
:100BB000953041F48091E80080FFFCCF20682093BD
:100BC000E30021C1963009F05FC0EB8CFC8C1092E1
:100BD000E9001092550110925401123091F51092D3
:100BE0005301109252010E94E00399E0BE016F5F31
:100BF0007F4FDB01E92F1D92EA95E9F799831A836C
:100C000091E09E8390EA98879AEF9987209154010A
:100C100030915501275F3F4F3C832B838D8310928A
:100C2000E9001092550110925401F0925301E092A4
:100C3000520149E050E080E00E9481010E94E003FF
:100C4000E2C0F0925301E09252010E943A0ADC01A4
:100C50001296ED90FC901397E114F10409F4C0C0D2
:100C6000D701ED91FC910480F581E02DBE016B5E12
:100C70007F4FC7010995009719F00CF0C4C0C7C099
:100C8000F701E084F184E8CF973009F4C0C09830D0
:100C900021F481E08093F100B6C0993009F0B3C02F
:100CA000837009F0B4C0EDE0F1E081E021E036E3CB
:100CB0009081992361F08093E9002093EB0091915A
:100CC0009093EC003093ED008F5F873089F78EE7CB
:100CD0008093EA001092EA008F8980935B0193C0B1
:100CE0008B8D9C8D1092E900109255011092540149
:100CF0009093530180935201898D811156C08E8942
:100D00009D89913A59F4813209F081C047E050E061
:100D100064E071E080E00E94810175C0913209F0C9
:100D200076C0833289F4888D90E0982F88272F89A8
:100D3000822BA0E0B0E08093000190930101A0938A
:100D40000201B09303015FC0803269F48091E80032
:100D500082FFFCCF67E084E091E00E94A8018BEF66
:100D60008093E80006C0823209F04DC08F898093DD
:100D70000B0180915601882319F0EEEFFAE002C0D2
:100D8000E0E0F8E08091040190910501A091060156
:100D9000B0910701803B9440A105B10509F07BC0EB
:100DA00080910B0180FF93C076C00E943A0ADC015B
:100DB00012960D911C9113970115110541F1D8015F
:100DC000ED91FC910190F081E02DBE016B5E7F4FB3
:100DD000C8010995811117C0F80100851185ECCF74
:100DE000113009F44EC0133091F48F89882309F42F
:100DF00045C0823081F440E860E18BE691E00E94DA
:100E00004401882321F08EEF8093E80079C081E2CD
:100E10008093EB0075C0813029F440E86BE08FE5EA
:100E200091E0EDCF833099F70E943A0ADC011296E7
:100E3000ED90FC9013978E010F5F1F4F6801E11436
:100E4000F10479F0D701ED91FC910680F781E02D56
:100E5000B801C7010995080F111DF701E084F1845D
:100E6000EECFD8011C92F60101900020E9F73197EE
:100E7000BF016C197D0940E0C601C1CF69E471E092
:100E800002C06DE471E06115710509F2FB01449146
:100E900050E080E840CF0FB6F894A89580916000AC
:100EA000886180936000109260000FBEA895EE3FAD
:100EB0002AE0F20739F08091FE0A9091FF0A9183AF
:100EC0008083A1CF1092FF0A1092FE0A9CCFEE3FC2
:100ED0008AE0F80731F0808191819093FF0A809336
:100EE000FE0A87E797E7918380839BE088E10FB64E
:100EF000F894A895809360000FBE9093600083CF14
:100F00006C960FB6F894DEBF0FBECDBFDF91CF91C8
:100F1000FF91EF91BF91AF919F918F917F916F91D1
:100F20005F914F913F912F911F910F91FF90EF9003
:100F3000DF90CF900F900FBE0F901F9018951F92CB
:100F40000F920FB60F9211242F933F934F935F93FD
:100F50006F937F938F939F93AF93BF93EF93FF9381
:100F60008CE591E00E942702FF91EF91BF91AF9134
:100F70009F918F917F916F915F914F913F912F91B1
:100F80000F900FBE0F901F9018951F920F920FB6E3
:100F90000F9211242F938F939F93EF93FF93E091E0
:100FA0006C01F0916D018081E0917201F09173010B
:100FB00082FD12C09081809175018F5F8F732091A7
:100FC0007601821751F0E0917501F0E0E45AFE4F8E
:100FD000958F8093750101C08081FF91EF919F9162
:100FE0008F912F910F900FBE0F901F9018953FB7C4
:100FF000F89480913C0190913D01A0913E01B09107
:101000003F0126B5A89B05C02F3F19F00196A11DF1
:10101000B11D3FBFBA2FA92F982F8827820F911D8E
:10102000A11DB11DBC01CD0142E0660F771F881FD5
:10103000991F4A95D1F708951F920F920FB60F92FC
:1010400011242F933F938F939F93AF93BF938091DE
:10105000400190914101A0914201B0914301309132
:101060003B0123E0230F2D3720F40196A11DB11D74
:1010700005C026E8230F0296A11DB11D20933B0158
:101080008093400190934101A0934201B0934301AA
:1010900080913C0190913D01A0913E01B0913F01B2
:1010A0000196A11DB11D80933C0190933D01A09339
:1010B0003E01B0933F01BF91AF919F918F913F91BE
:1010C0002F910F900FBE0F901F9018951F920F92A7
:1010D0000FB60F9211242F933F934F935F936F930B
:1010E0007F938F939F93AF93BF93EF93FF938091E1
:1010F0003A0187FF05C010928500109284001BC042
:1011000020913A01022E000C330B80916D0290E089
:101110002817390784F480913A01082E000C990BA6
:10112000FC01EE0FFF1F8E0F9F1FFC01E75BFD4FC1
:10113000808186FD15C080913A018F5F80933A01CE
:1011400020913A01022E000C330B80916D0290E049
:1011500028173907C4F480913A018C3064F113C028
:1011600080913A01082E000C990BFC01EE0FFF1F35
:101170008E0F9F1FFC01E75BFD4F808160E08F7346
:101180000E94FA02D8CF8091840090918500049645
:1011900080349C4918F480E49CE905C08091840067
:1011A00090918500049690938900809388008FEF3A
:1011B00080933A013BC0209184003091850080915A
:1011C0003A01082E000C990BFC01EE0FFF1F8E0F49
:1011D0009F1FFC01E75BFD4F81819281820F931F6E
:1011E000909389008093880080913A01082E000C2A
:1011F000990BFC01EE0FFF1F8E0F9F1FFC01E75B99
:10120000FD4F808186FF12C080913A01082E000CAC
:10121000990BFC01EE0FFF1F8E0F9F1FFC01E75B78
:10122000FD4F808161E08F730E94FA02FF91EF9180
:10123000BF91AF919F918F917F916F915F914F91EE
:101240003F912F910F900FBE0F901F901895611531
:10125000710579F0FB0101900020E9F73197AF01AA
:10126000461B570BDC01ED91FC910280F381E02DD0
:10127000099480E090E008950E94B60E90E0FC0191
:10128000E954FE4F2491FC01E856FE4F84918823D7
:1012900099F090E0880F991FFC01E657FE4FA59149
:1012A000B491FC01E458FE4F859194918FB7F89466
:1012B000EC91E22BEC938FBF08958F929F92AF92A7
:1012C000BF92CF92DF92EF92FF920F931F93CF9333
:1012D000DF93CDB7DEB7A1970FB6F894DEBF0FBE90
:1012E000CDBF6C01990FEE08FF08F7FE33C0E09107
:1012F000F901F091FA010190F081E02D6DE289EFA2
:1013000091E009958C0122273327A9012C193D0969
:101310004E095F0919A2CE0181967C019AE0892EBF
:10132000912CA12CB12CCA01B901A50194010E94F4
:10133000730E605DF70162937F0121153105410550
:10134000510589F7BF0189EF91E00E942709080F35
:10135000191F20C0A701960119A28E010F5D1F4F12
:101360008AE0C82ED12CE12CF12CCA01B901A701C9
:1013700096010E94730E605DF80162938F01211542
:1013800031054105510589F7BF0189EF91E00E94C0
:1013900027098C0167E371E089EF91E00E9427093A
:1013A000800F911FA1960FB6F894DEBF0FBECDBF80
:1013B000DF91CF911F910F91FF90EF90DF90CF9031
:1013C000BF90AF909F908F900895CF92DF92EF9251
:1013D000FF920E94F7076B017C010E94F707DC0176
:1013E000CB018C199D09AE09BF09883E9340A10528
:1013F000B10598F3FF90EF90DF90CF900895FC0136
:1014000080915B01811103C08FEF9FEF08959FB71B
:10141000F89482E08093E9002091F20030E0121607
:10142000130614F421E030E02115310559F0289815
:1014300084E680935A018091F10080838091F200CC
:10144000882319F09FBFC90108958BE68093E800B7
:10145000F9CF2FB7F89483E08093E9009091E800EA
:10146000892F807295FF04C09091F20080E4891B5F
:101470002FBF08958091A20281110DC082E0809358
:101480009E0284E080939F021092A1021092A0021B
:1014900081E08093A2028EE992E008951F920F925C
:1014A0000FB60F9211248F939F938091E10090913A
:1014B000E100937F9093E10083FF0FC01092E90059
:1014C00091E09093EB001092EC0092E39093ED008A
:1014D00010925B0198E09093F00082FF20C093E0AF
:1014E0009093E9009091F200992319F09AE3909378
:1014F000E80090915901992339F090915901915048
:1015000090935901992389F190915A01992339F0C7
:1015100090915A01915090935A01992341F184FF7F
:1015200010C08091E2008E7E81608093E200809105
:10153000E1008F7E8093E100809158018E7E806172
:1015400011C080FF16C08091E2008E7E8061809382
:10155000E2008091E1008E7E8093E100809158014D
:101560008E7E81608093580104C05D9ACDCF289A09
:10157000D6CF9F918F910F900FBE0F901F9018950F
:10158000CF93DF93CDB7DEB727970FB6F894DEBFC2
:101590000FBECDBF789484B5826084BD84B5816070
:1015A00084BD85B5826085BD85B5816085BD80912E
:1015B0006E00816080936E001092810080918100A6
:1015C000826080938100809181008160809381009E
:1015D0008091800081608093800080919100826082
:1015E000809391008091910081608093910080911F
:1015F00090008160809390008091C100846080930E
:10160000C1008091C10082608093C1008091C100BF
:1016100081608093C1008091C30081608093C3008A
:101620008091C00082608093C0008091C200816080
:101630008093C20080917A00846080937A008091C8
:101640007A00826080937A0080917A008160809332
:101650007A0080917A00806880937A0010925B0112
:1016600010925701109258018091D70081608093A9
:10167000D70080EA8093D80089B5806189BD89B59B
:10168000826089BD09B400FEFDCF0E94E50980910A
:10169000D8008F7C80618093D8008091E000807FAB
:1016A0008093E0008091E1008E7E8093E1008DE0E8
:1016B0008093E200559A209AEEEFFFE7859194918E
:1016C0008B3F9C4D19F481E0809356018FEF9FEF83
:1016D000909306028093050280B38D7C80BB0EE65A
:1016E00012E0F80161918F0189EF91E00E94BB0245
:1016F000F2E002371F07A9F72FB7F8948091400155
:1017000090914101A0914201B09143012FBF80937C
:10171000720290937302A0937402B0937502E091E9
:101720006C01F0916D0182E08083E0916801F0919D
:1017300069011082E0916A01F0916B0180E1808380
:1017400010927401E0917001F09171018EE080833C
:10175000E0916E01F0916F01808180618083E09162
:101760006E01F0916F01808188608083E0916E014D
:10177000F0916F01808180688083E0916E01F0912B
:101780006F0180818F7D8083809176028C3008F09C
:1017900050C082E10E943E09E0917602AE2FB0E097
:1017A000CD01880F991FA80FB91FA75BBD4F8C9162
:1017B000807C82618C9310927702109278028E2F37
:1017C0006CE00E94A40E2CE0829FB001112440E046
:1017D00050E09A01260F371FD901AA0FBB1F2A0F0D
:1017E0003B1FD901A75BBD4F9C9196FD16C04F5F73
:1017F0005F4F4C30510569F781110FC01092800086
:1018000082E0809381001092850010928400B19A4A
:1018100080916F00826080936F008E2F90E0FC01BA
:10182000EE0FFF1FE80FF91FE75BFD4F808180641B
:10183000808360E070E086E792E00E945D0364E6EA
:10184000C62E0FEF10E0DD24D394AE014F5F5F4F43
:101850002A018CE591E00E941102181619060CF07D
:10186000FAC0E0908F02F09090028CE591E00E9427
:10187000EF01F701E259FD4F83A380918F02909110
:101880009002FC01E259FD4F23A1222331F0019681
:101890009093900280938F02DEC080909102082C7A
:1018A000000C990850E3851A910890927A02809270
:1018B0007902A09092020A2C000CBB0880E3A81ABF
:1018C000B108B0927C02A0927B02E09093020E2CB1
:1018D000000CFF0890E3E91AF108F0927E02E09212
:1018E0007D02A09194020A2E000CBB0BD097B093FE
:1018F0008002A0937F02E09195020E2E000CFF0B58
:10190000F097F0938202E093810220919602022EDA
:10191000000C330B2053310930938402209383024F
:1019200040919702042E000C550B405351095093DF
:101930008A024093890260909802062C000C770876
:1019400080E3681A710870928C0260928B02609139
:101950009902062E000C770B6053710970938E026A
:1019600060938D02C89C1001C99C300C11245AE070
:10197000952E9A9CC0019B9C900D1124820D931D65
:101980008E0D9F1D9093860280938502CA9E7001E2
:10199000CB9EF00C11249E9ED0019F9EB00D112471
:1019A000EA0EFB1EE20EF31EF0928802E09287021E
:1019B00028E7261BC49E201911243AE0639E2019B3
:1019C000112420934B010E945D0980918702909120
:1019D00088020E945D0920918502309186022F3F86
:1019E00041E03407A0F580918702909188028F3FF3
:1019F00051E0950760F52F3F310551F04CF02F5F16
:101A000031093093510120935001D0924F0109C008
:101A1000F801E21BF30BF0935101E0935001109297
:101A20004F018F3F910551F04CF08F5F91099093DA
:101A30004E0180934D01D0924C0109C09801281BA2
:101A4000390B30934E0120934D0110924C011092AE
:101A5000900210928F02F0904F01609150017091AE
:101A6000510185E00E9412046F2D84E00E94FA0269
:101A7000F0904C0160914D0170914E0186E00E9402
:101A800012046F2D87E00E94FA0260914B0170E012
:101A900086E792E00E945D032FB125FB222720F903
:101AA0002D2520934A019FB1969591709D25909385
:101AB00049018FB1829581708D25809348011092E4
:101AC000470110924601109245011092440137E0FF
:101AD000F20111923A95E9F7F3E3FC8334E3932E94
:101AE0009D8245E3B42EBE8236E33F83205D298389
:101AF000905D9A83805D8B838091720290917302D6
:101B0000A0917402B09175020F96A11DB11D2FB75F
:101B1000F8944091400150914101609142017091CF
:101B200043012FBF84179507A607B707E8F460E0C5
:101B30008CE591E00E944802B2018CE591E00E94A0
:101B400027092FB7F8948091400190914101A0910D
:101B50004201B09143012FBF8093720290937302B0
:101B6000A0937402B09375020E94B10272CE1092DB
:101B70005F0110925E0188EE93E0A0E0B0E08093F8
:101B8000600190936101A0936201B093630127E12A
:101B900031E030935D0120935C012DEC30E0309317
:101BA0006901209368012CEC30E030936B012093A5
:101BB0006A0128EC30E030936D0120936C0129EC30
:101BC00030E030936F0120936E012AEC30E03093C7
:101BD0007101209370012EEC30E03093730120935B
:101BE0007201109275011092760110927701109295
:101BF00078011092FC011092FB018093FD019093FB
:101C0000FE01A093FF01B093000289E291E090935E
:101C1000FA018093F9018FEF9FEF90930602809372
:101C2000050284E480936E0282E280936F028BEB64
:101C30008093700281E08093710280916D028C30FC
:101C4000A0F491E0980F90936D028093760290E05B
:101C5000FC01EE0FFF1F8E0F9F1FFC01E75BFD4F86
:101C600088EB9BE09283818303C08FEF80937602A1
:101C7000109284021092830210928E0210928D02B2
:101C80000895052E97FB1EF400940E94580E57FDF0
:101C900007D00E94730E07FC03D04EF40C94580E2C
:101CA00050954095309521953F4F4F4F5F4F089588
:101CB00090958095709561957F4F8F4F9F4F0895B8
:101CC0000E94950EA59F900DB49F900DA49F800D2E
:101CD000911D11240895B7FF0C94600E0E94600EB0
:101CE000821B930B0895A1E21A2EAA1BBB1BFD01B8
:101CF0000DC0AA1FBB1FEE1FFF1FA217B307E407EB
:101D0000F50720F0A21BB30BE40BF50B661F771F42
:101D1000881F991F1A9469F7609570958095909522
:101D20009B01AC01BD01CF010895A29FB001B39FFB
:101D3000C001A39F700D811D1124911DB29F700DD4
:101D4000811D1124911D0895991B79E004C0991FEC
:101D5000961708F0961B881F7A95C9F78095089505
:101D6000EE0FFF1F0590F491E02D099481E090E0C3
:0A1D7000F8940C94BB0EF894FFCF1A
:101D7A00FFFFFFFF00E100000000000000C18081BA
:101D8A00000000000000004802B501E0018F0211C6
:101D9A0002EF01030200000000BB02A9042905D1D9
:0A1DAA0002DC022D054B050D0A00B6
:00000001FF
